{
  "_format": "hh-sol-artifact-1",
  "contractName": "Transactions",
  "sourceName": "contracts/Transactions.sol",
  "abi": [
    {
      "inputs": [
        {
          "internalType": "address payable",
          "name": "receiver",
          "type": "address"
        },
        {
          "internalType": "uint256",
          "name": "amount",
          "type": "uint256"
        },
        {
          "internalType": "string",
          "name": "message",
          "type": "string"
        },
        {
          "internalType": "string",
          "name": "keyword",
          "type": "string"
        }
      ],
      "name": "addToTransaction",
      "outputs": [],
      "stateMutability": "nonpayable",
      "type": "function"
    },
    {
      "inputs": [],
      "name": "count",
      "outputs": [
        {
          "internalType": "uint256",
          "name": "",
          "type": "uint256"
        }
      ],
      "stateMutability": "view",
      "type": "function"
    },
    {
      "inputs": [
        {
          "internalType": "uint256",
          "name": "",
          "type": "uint256"
        }
      ],
      "name": "transactions",
      "outputs": [
        {
          "internalType": "address",
          "name": "sender",
          "type": "address"
        },
        {
          "internalType": "address",
          "name": "receiver",
          "type": "address"
        },
        {
          "internalType": "string",
          "name": "message",
          "type": "string"
        },
        {
          "internalType": "uint256",
          "name": "timestamp",
          "type": "uint256"
        },
        {
          "internalType": "string",
          "name": "keyword",
          "type": "string"
        },
        {
          "internalType": "uint256",
          "name": "amount",
          "type": "uint256"
        }
      ],
      "stateMutability": "view",
      "type": "function"
    }
  ],
  "bytecode": "0x608060405234801561001057600080fd5b50610b3a806100206000396000f3fe608060405234801561001057600080fd5b50600436106100415760003560e01c806306661abd146100465780639ace38c214610064578063e53c74f214610099575b600080fd5b61004e6100b5565b60405161005b91906103e9565b60405180910390f35b61007e60048036038101906100799190610444565b6100bb565b60405161009096959493929190610542565b60405180910390f35b6100b360048036038101906100ae9190610724565b610257565b005b60005481565b600181815481106100cb57600080fd5b90600052602060002090600602016000915090508060000160009054906101000a900473ffffffffffffffffffffffffffffffffffffffff16908060010160009054906101000a900473ffffffffffffffffffffffffffffffffffffffff169080600201805461013a906107f2565b80601f0160208091040260200160405190810160405280929190818152602001828054610166906107f2565b80156101b35780601f10610188576101008083540402835291602001916101b3565b820191906000526020600020905b81548152906001019060200180831161019657829003601f168201915b5050505050908060030154908060040180546101ce906107f2565b80601f01602080910402602001604051908101604052809291908181526020018280546101fa906107f2565b80156102475780601f1061021c57610100808354040283529160200191610247565b820191906000526020600020905b81548152906001019060200180831161022a57829003601f168201915b5050505050908060050154905086565b60016000808282546102699190610852565b9250508190555060006040518060c001604052803373ffffffffffffffffffffffffffffffffffffffff1681526020018673ffffffffffffffffffffffffffffffffffffffff168152602001848152602001428152602001838152602001858152509050600181908060018154018082558091505060019003906000526020600020906006020160009091909190915060008201518160000160006101000a81548173ffffffffffffffffffffffffffffffffffffffff021916908373ffffffffffffffffffffffffffffffffffffffff16021790555060208201518160010160006101000a81548173ffffffffffffffffffffffffffffffffffffffff021916908373ffffffffffffffffffffffffffffffffffffffff160217905550604082015181600201908161039c9190610a32565b506060820151816003015560808201518160040190816103bc9190610a32565b5060a0820151816005015550505050505050565b6000819050919050565b6103e3816103d0565b82525050565b60006020820190506103fe60008301846103da565b92915050565b6000604051905090565b600080fd5b600080fd5b610421816103d0565b811461042c57600080fd5b50565b60008135905061043e81610418565b92915050565b60006020828403121561045a5761045961040e565b5b60006104688482850161042f565b91505092915050565b600073ffffffffffffffffffffffffffffffffffffffff82169050919050565b600061049c82610471565b9050919050565b6104ac81610491565b82525050565b600081519050919050565b600082825260208201905092915050565b60005b838110156104ec5780820151818401526020810190506104d1565b60008484015250505050565b6000601f19601f8301169050919050565b6000610514826104b2565b61051e81856104bd565b935061052e8185602086016104ce565b610537816104f8565b840191505092915050565b600060c08201905061055760008301896104a3565b61056460208301886104a3565b81810360408301526105768187610509565b905061058560608301866103da565b81810360808301526105978185610509565b90506105a660a08301846103da565b979650505050505050565b60006105bc82610471565b9050919050565b6105cc816105b1565b81146105d757600080fd5b50565b6000813590506105e9816105c3565b92915050565b600080fd5b600080fd5b7f4e487b7100000000000000000000000000000000000000000000000000000000600052604160045260246000fd5b610631826104f8565b810181811067ffffffffffffffff821117156106505761064f6105f9565b5b80604052505050565b6000610663610404565b905061066f8282610628565b919050565b600067ffffffffffffffff82111561068f5761068e6105f9565b5b610698826104f8565b9050602081019050919050565b82818337600083830152505050565b60006106c76106c284610674565b610659565b9050828152602081018484840111156106e3576106e26105f4565b5b6106ee8482856106a5565b509392505050565b600082601f83011261070b5761070a6105ef565b5b813561071b8482602086016106b4565b91505092915050565b6000806000806080858703121561073e5761073d61040e565b5b600061074c878288016105da565b945050602061075d8782880161042f565b935050604085013567ffffffffffffffff81111561077e5761077d610413565b5b61078a878288016106f6565b925050606085013567ffffffffffffffff8111156107ab576107aa610413565b5b6107b7878288016106f6565b91505092959194509250565b7f4e487b7100000000000000000000000000000000000000000000000000000000600052602260045260246000fd5b6000600282049050600182168061080a57607f821691505b60208210810361081d5761081c6107c3565b5b50919050565b7f4e487b7100000000000000000000000000000000000000000000000000000000600052601160045260246000fd5b600061085d826103d0565b9150610868836103d0565b92508282019050808211156108805761087f610823565b5b92915050565b60008190508160005260206000209050919050565b60006020601f8301049050919050565b600082821b905092915050565b6000600883026108e87fffffffffffffffffffffffffffffffffffffffffffffffffffffffffffffffff826108ab565b6108f286836108ab565b95508019841693508086168417925050509392505050565b6000819050919050565b600061092f61092a610925846103d0565b61090a565b6103d0565b9050919050565b6000819050919050565b61094983610914565b61095d61095582610936565b8484546108b8565b825550505050565b600090565b610972610965565b61097d818484610940565b505050565b5b818110156109a15761099660008261096a565b600181019050610983565b5050565b601f8211156109e6576109b781610886565b6109c08461089b565b810160208510156109cf578190505b6109e36109db8561089b565b830182610982565b50505b505050565b600082821c905092915050565b6000610a09600019846008026109eb565b1980831691505092915050565b6000610a2283836109f8565b9150826002028217905092915050565b610a3b826104b2565b67ffffffffffffffff811115610a5457610a536105f9565b5b610a5e82546107f2565b610a698282856109a5565b600060209050601f831160018114610a9c5760008415610a8a578287015190505b610a948582610a16565b865550610afc565b601f198416610aaa86610886565b60005b82811015610ad257848901518255600182019150602085019450602081019050610aad565b86831015610aef5784890151610aeb601f8916826109f8565b8355505b6001600288020188555050505b50505050505056fea2646970667358221220994e16d57ffbef5ae97da83d56fa6284bfdf135851c2afd5dff75aadc9d4a5a664736f6c63430008130033",
  "linkReferences": {},
  "deployedLinkReferences": {}
}