{
  "_format": "hh-sol-artifact-1",
  "contractName": "Transactions",
  "sourceName": "contracts/Transactions.sol",
  "abi": [
    {
      "inputs": [
        {
          "internalType": "address payable",
          "name": "receiver",
          "type": "address"
        },
        {
          "internalType": "uint256",
          "name": "amount",
          "type": "uint256"
        },
        {
          "internalType": "string",
          "name": "message",
          "type": "string"
        },
        {
          "internalType": "string",
          "name": "keyword",
          "type": "string"
        }
      ],
      "name": "addToTransaction",
      "outputs": [],
      "stateMutability": "nonpayable",
      "type": "function"
    },
    {
      "inputs": [],
      "name": "count",
      "outputs": [
        {
          "internalType": "uint256",
          "name": "",
          "type": "uint256"
        }
      ],
      "stateMutability": "view",
      "type": "function"
    },
    {
      "inputs": [],
      "name": "getAllTransaction",
      "outputs": [
        {
          "components": [
            {
              "internalType": "address",
              "name": "sender",
              "type": "address"
            },
            {
              "internalType": "address",
              "name": "receiver",
              "type": "address"
            },
            {
              "internalType": "string",
              "name": "message",
              "type": "string"
            },
            {
              "internalType": "uint256",
              "name": "timestamp",
              "type": "uint256"
            },
            {
              "internalType": "string",
              "name": "keyword",
              "type": "string"
            },
            {
              "internalType": "uint256",
              "name": "amount",
              "type": "uint256"
            }
          ],
          "internalType": "struct Transactions.TransferStruct[]",
          "name": "",
          "type": "tuple[]"
        }
      ],
      "stateMutability": "view",
      "type": "function"
    },
    {
      "inputs": [
        {
          "internalType": "uint256",
          "name": "",
          "type": "uint256"
        }
      ],
      "name": "transactions",
      "outputs": [
        {
          "internalType": "address",
          "name": "sender",
          "type": "address"
        },
        {
          "internalType": "address",
          "name": "receiver",
          "type": "address"
        },
        {
          "internalType": "string",
          "name": "message",
          "type": "string"
        },
        {
          "internalType": "uint256",
          "name": "timestamp",
          "type": "uint256"
        },
        {
          "internalType": "string",
          "name": "keyword",
          "type": "string"
        },
        {
          "internalType": "uint256",
          "name": "amount",
          "type": "uint256"
        }
      ],
      "stateMutability": "view",
      "type": "function"
    }
  ],
  "bytecode": "0x608060405234801561001057600080fd5b50610f82806100206000396000f3fe608060405234801561001057600080fd5b506004361061004c5760003560e01c806306661abd146100515780639ace38c21461006f578063add6415d146100a4578063e53c74f2146100c2575b600080fd5b6100596100de565b6040516100669190610655565b60405180910390f35b610089600480360381019061008491906106b0565b6100e4565b60405161009b969594939291906107ae565b60405180910390f35b6100ac610280565b6040516100b991906109d7565b60405180910390f35b6100dc60048036038101906100d79190610b6c565b6104c3565b005b60005481565b600181815481106100f457600080fd5b90600052602060002090600602016000915090508060000160009054906101000a900473ffffffffffffffffffffffffffffffffffffffff16908060010160009054906101000a900473ffffffffffffffffffffffffffffffffffffffff169080600201805461016390610c3a565b80601f016020809104026020016040519081016040528092919081815260200182805461018f90610c3a565b80156101dc5780601f106101b1576101008083540402835291602001916101dc565b820191906000526020600020905b8154815290600101906020018083116101bf57829003601f168201915b5050505050908060030154908060040180546101f790610c3a565b80601f016020809104026020016040519081016040528092919081815260200182805461022390610c3a565b80156102705780601f1061024557610100808354040283529160200191610270565b820191906000526020600020905b81548152906001019060200180831161025357829003601f168201915b5050505050908060050154905086565b60606001805480602002602001604051908101604052809291908181526020016000905b828210156104ba57838290600052602060002090600602016040518060c00160405290816000820160009054906101000a900473ffffffffffffffffffffffffffffffffffffffff1673ffffffffffffffffffffffffffffffffffffffff1673ffffffffffffffffffffffffffffffffffffffff1681526020016001820160009054906101000a900473ffffffffffffffffffffffffffffffffffffffff1673ffffffffffffffffffffffffffffffffffffffff1673ffffffffffffffffffffffffffffffffffffffff16815260200160028201805461038390610c3a565b80601f01602080910402602001604051908101604052809291908181526020018280546103af90610c3a565b80156103fc5780601f106103d1576101008083540402835291602001916103fc565b820191906000526020600020905b8154815290600101906020018083116103df57829003601f168201915b505050505081526020016003820154815260200160048201805461041f90610c3a565b80601f016020809104026020016040519081016040528092919081815260200182805461044b90610c3a565b80156104985780601f1061046d57610100808354040283529160200191610498565b820191906000526020600020905b81548152906001019060200180831161047b57829003601f168201915b50505050508152602001600582015481525050815260200190600101906102a4565b50505050905090565b60016000808282546104d59190610c9a565b9250508190555060006040518060c001604052803373ffffffffffffffffffffffffffffffffffffffff1681526020018673ffffffffffffffffffffffffffffffffffffffff168152602001848152602001428152602001838152602001858152509050600181908060018154018082558091505060019003906000526020600020906006020160009091909190915060008201518160000160006101000a81548173ffffffffffffffffffffffffffffffffffffffff021916908373ffffffffffffffffffffffffffffffffffffffff16021790555060208201518160010160006101000a81548173ffffffffffffffffffffffffffffffffffffffff021916908373ffffffffffffffffffffffffffffffffffffffff16021790555060408201518160020190816106089190610e7a565b506060820151816003015560808201518160040190816106289190610e7a565b5060a0820151816005015550505050505050565b6000819050919050565b61064f8161063c565b82525050565b600060208201905061066a6000830184610646565b92915050565b6000604051905090565b600080fd5b600080fd5b61068d8161063c565b811461069857600080fd5b50565b6000813590506106aa81610684565b92915050565b6000602082840312156106c6576106c561067a565b5b60006106d48482850161069b565b91505092915050565b600073ffffffffffffffffffffffffffffffffffffffff82169050919050565b6000610708826106dd565b9050919050565b610718816106fd565b82525050565b600081519050919050565b600082825260208201905092915050565b60005b8381101561075857808201518184015260208101905061073d565b60008484015250505050565b6000601f19601f8301169050919050565b60006107808261071e565b61078a8185610729565b935061079a81856020860161073a565b6107a381610764565b840191505092915050565b600060c0820190506107c3600083018961070f565b6107d0602083018861070f565b81810360408301526107e28187610775565b90506107f16060830186610646565b81810360808301526108038185610775565b905061081260a0830184610646565b979650505050505050565b600081519050919050565b600082825260208201905092915050565b6000819050602082019050919050565b610852816106fd565b82525050565b600082825260208201905092915050565b60006108748261071e565b61087e8185610858565b935061088e81856020860161073a565b61089781610764565b840191505092915050565b6108ab8161063c565b82525050565b600060c0830160008301516108c96000860182610849565b5060208301516108dc6020860182610849565b50604083015184820360408601526108f48282610869565b915050606083015161090960608601826108a2565b50608083015184820360808601526109218282610869565b91505060a083015161093660a08601826108a2565b508091505092915050565b600061094d83836108b1565b905092915050565b6000602082019050919050565b600061096d8261081d565b6109778185610828565b93508360208202850161098985610839565b8060005b858110156109c557848403895281516109a68582610941565b94506109b183610955565b925060208a0199505060018101905061098d565b50829750879550505050505092915050565b600060208201905081810360008301526109f18184610962565b905092915050565b6000610a04826106dd565b9050919050565b610a14816109f9565b8114610a1f57600080fd5b50565b600081359050610a3181610a0b565b92915050565b600080fd5b600080fd5b7f4e487b7100000000000000000000000000000000000000000000000000000000600052604160045260246000fd5b610a7982610764565b810181811067ffffffffffffffff82111715610a9857610a97610a41565b5b80604052505050565b6000610aab610670565b9050610ab78282610a70565b919050565b600067ffffffffffffffff821115610ad757610ad6610a41565b5b610ae082610764565b9050602081019050919050565b82818337600083830152505050565b6000610b0f610b0a84610abc565b610aa1565b905082815260208101848484011115610b2b57610b2a610a3c565b5b610b36848285610aed565b509392505050565b600082601f830112610b5357610b52610a37565b5b8135610b63848260208601610afc565b91505092915050565b60008060008060808587031215610b8657610b8561067a565b5b6000610b9487828801610a22565b9450506020610ba58782880161069b565b935050604085013567ffffffffffffffff811115610bc657610bc561067f565b5b610bd287828801610b3e565b925050606085013567ffffffffffffffff811115610bf357610bf261067f565b5b610bff87828801610b3e565b91505092959194509250565b7f4e487b7100000000000000000000000000000000000000000000000000000000600052602260045260246000fd5b60006002820490506001821680610c5257607f821691505b602082108103610c6557610c64610c0b565b5b50919050565b7f4e487b7100000000000000000000000000000000000000000000000000000000600052601160045260246000fd5b6000610ca58261063c565b9150610cb08361063c565b9250828201905080821115610cc857610cc7610c6b565b5b92915050565b60008190508160005260206000209050919050565b60006020601f8301049050919050565b600082821b905092915050565b600060088302610d307fffffffffffffffffffffffffffffffffffffffffffffffffffffffffffffffff82610cf3565b610d3a8683610cf3565b95508019841693508086168417925050509392505050565b6000819050919050565b6000610d77610d72610d6d8461063c565b610d52565b61063c565b9050919050565b6000819050919050565b610d9183610d5c565b610da5610d9d82610d7e565b848454610d00565b825550505050565b600090565b610dba610dad565b610dc5818484610d88565b505050565b5b81811015610de957610dde600082610db2565b600181019050610dcb565b5050565b601f821115610e2e57610dff81610cce565b610e0884610ce3565b81016020851015610e17578190505b610e2b610e2385610ce3565b830182610dca565b50505b505050565b600082821c905092915050565b6000610e5160001984600802610e33565b1980831691505092915050565b6000610e6a8383610e40565b9150826002028217905092915050565b610e838261071e565b67ffffffffffffffff811115610e9c57610e9b610a41565b5b610ea68254610c3a565b610eb1828285610ded565b600060209050601f831160018114610ee45760008415610ed2578287015190505b610edc8582610e5e565b865550610f44565b601f198416610ef286610cce565b60005b82811015610f1a57848901518255600182019150602085019450602081019050610ef5565b86831015610f375784890151610f33601f891682610e40565b8355505b6001600288020188555050505b50505050505056fea26469706673582212205ce283d818db64fcd933549ac07444b10dd4175fbd6d51fa1ea72d65d695590464736f6c63430008130033",
  "linkReferences": {},
  "deployedLinkReferences": {}
}